:100000000C945C000C9479000C9479000C947900A9
:100010000C9479000C9479000C9479000C9479007C
:100020000C9479000C9479000C9479000C9479006C
:100030000C9479000C9479000C9479000C9479005C
:100040000C94BF000C9479000C9479000C94790006
:100050000C9479000C9479000C9479000C9479003C
:100060000C9479000C947900000000080002010053
:100070000003040700000000000000000000000072
:10008000250028002B0000000000240027002A0083
:10009000040404040404040402020202020203032E
:1000A0000303030301020408102040800102040836
:1000B000102001020408102011241FBECFEFD8E049
:1000C000DEBFCDBF11E0A0E0B1E0E4E0F4E002C0AB
:1000D00005900D92A431B107D9F721E0A4E1B1E078
:1000E00001C01D92AD31B207E1F70E9409010C94E5
:1000F00000020C94000090E0FC01EC55FF4F2491AD
:1001000080579F4FFC018491882399F090E0880FDD
:10011000991FFC01EA57FF4FA591B491FC01E458E7
:10012000FF4F859194918FB7F894EC91E22BEC936B
:100130008FBF08953FB7F8948091190190911A01EB
:10014000A0911B01B0911C0126B5A89B05C02F3FB3
:1001500019F00196A11DB11D3FBFBA2FA92F982FED
:100160008827BC01CD01620F711D811D911D42E0E8
:10017000660F771F881F991F4A95D1F708951F9220
:100180000F920FB60F9211242F933F938F939F934B
:10019000AF93BF938091150190911601A091170123
:1001A000B09118013091140123E0230F2D3758F539
:1001B0000196A11DB11D2093140180931501909308
:1001C0001601A0931701B093180180911901909125
:1001D0001A01A0911B01B0911C010196A11DB11D36
:1001E0008093190190931A01A0931B01B0931C01F5
:1001F000BF91AF919F918F913F912F910F900FBE23
:100200000F901F90189526E8230F0296A11DB11D8F
:10021000D2CF789484B5826084BD84B5816084BD7A
:1002200085B5826085BD85B5816085BD80916E0094
:10023000816080936E0010928100809181008260C5
:100240008093810080918100816080938100809102
:1002500080008160809380008091B10084608093F1
:10026000B1008091B00081608093B00080917A00ED
:10027000846080937A0080917A00826080937A0013
:1002800080917A00816080937A0080917A00806802
:1002900080937A001092C10082E00E947B0083E08C
:1002A0000E947B0084E00E947B0085E00E947B002E
:1002B00086E00E947B0087E00E947B0088E00E942D
:1002C0007B0089E00E947B0000E010E0C8E0D1E004
:1002D0004991A0E0B1E030E020E050E08D9190E065
:1002E000FC01E859FF4F7491FC01EC55FF4F6491FC
:1002F000FC01E057FF4FE491EE2329F1772359F0F9
:10030000733009F462C008F055C0713009F463C05D
:10031000723009F464C0F0E0EE0FFF1FE458FF4FA5
:10032000859194917FB7F894FA01022E02C0F59559
:10033000E7950A94E2F7E0FD5FC0FC01F08060956C
:100340006F2160837FBF2F5F3F4F2830310509F059
:10035000C5CF0E949A004B015C0188EEC82E83E055
:10036000D82EE12CF12C0E949A00681979098A098B
:100370009B09683E734081059105A8F3F1E0CF1A0F
:10038000D108E108F10828EE820E23E0921EA11C9C
:10039000B11CC114D104E104F10429F7F1E0C33127
:1003A000DF0709F095CF0115110509F48FCF0E94E1
:1003B00000008CCF7730B1F07830D1F0743009F094
:1003C000AACF809180008F7D03C0809180008F77BD
:1003D00080938000A0CF84B58F7784BD9CCF84B5F7
:1003E0008F7DFBCF8091B0008F778093B00093CF4B
:1003F0008091B0008F7DF9CFFC01F0806F29A1CFF3
:04040000F894FFCF9E
:1004040002030405060708093F065B4F666D7D0776
:040414007F6F800076
:107E0000112484B714BE81FFF0D085E080938100F7
:107E100082E08093C00088E18093C10086E0809377
:107E2000C20080E18093C4008EE0C9D0259A86E02C
:107E300020E33CEF91E0309385002093840096BBD3
:107E4000B09BFECF1D9AA8958150A9F7CC24DD24C4
:107E500088248394B5E0AB2EA1E19A2EF3E0BF2EE7
:107E6000A2D0813461F49FD0082FAFD0023811F036
:107E7000013811F484E001C083E08DD089C08234E0
:107E800011F484E103C0853419F485E0A6D080C0E4
:107E9000853579F488D0E82EFF2485D0082F10E0AE
:107EA000102F00270E291F29000F111F8ED06801E7
:107EB0006FC0863521F484E090D080E0DECF843638
:107EC00009F040C070D06FD0082F6DD080E0C81688
:107ED00080E7D80618F4F601B7BEE895C0E0D1E017
:107EE00062D089930C17E1F7F0E0CF16F0E7DF06D8
:107EF00018F0F601B7BEE89568D007B600FCFDCFD4
:107F0000A601A0E0B1E02C9130E011968C91119780
:107F100090E0982F8827822B932B1296FA010C0160
:107F200087BEE89511244E5F5F4FF1E0A038BF0790
:107F300051F7F601A7BEE89507B600FCFDCF97BE46
:107F4000E89526C08437B1F42ED02DD0F82E2BD052
:107F50003CD0F601EF2C8F010F5F1F4F84911BD097
:107F6000EA94F801C1F70894C11CD11CFA94CF0C13
:107F7000D11C0EC0853739F428D08EE10CD085E9AC
:107F80000AD08FE07ACF813511F488E018D01DD067
:107F900080E101D065CF982F8091C00085FFFCCF94
:107FA0009093C60008958091C00087FFFCCF809118
:107FB000C00084FD01C0A8958091C6000895E0E648
:107FC000F0E098E1908380830895EDDF803219F02E
:107FD00088E0F5DFFFCF84E1DECF1F93182FE3DFCA
:107FE0001150E9F7F2DF1F91089580E0E8DFEE27F6
:047FF000FF270994CA
:027FFE00040479
:0400000300007E007B
:00000001FF
