:100000000C945D000C9485000C9485000C94850084
:100010000C9485000C9485000C9485000C9485004C
:100020000C9485000C9485000C9485000C9485003C
:100030000C9485000C9485000C9485000C9485002C
:100040000C94B7010C9485000C9485000C948500E9
:100050000C9485000C9485000C9485000C9485000C
:100060000C9485000C94850000000008000201003B
:100070000003040700000000000000000000000072
:10008000250028002B0000000000240027002A0083
:10009000040404040404040402020202020203032E
:1000A0000303030301020408102040800102040836
:1000B00010200102040810207A0411241FBECFEF83
:1000C000D8E0DEBFCDBF11E0A0E0B1E0EEEDF9E099
:1000D00002C005900D92A835B107D9F721E0A8E537
:1000E000B1E001C01D92A039B207E1F710E0CDE503
:1000F000D0E004C02197FE010E94E704CC35D1076F
:10010000C9F70E9401020C94ED040C94000090E0E9
:10011000FC01EC55FF4F249180579F4FFC018491C7
:10012000882399F090E0880F991FFC01EA57FF4F50
:10013000A591B491FC01E458FF4F859194918FB73C
:10014000F894EC91E22BEC938FBF089590E0FC01C2
:10015000E859FF4F2491FC01EC55FF4F3491FC010D
:10016000E057FF4FE491EE23C9F0222339F023300A
:1001700001F1A8F4213019F1223029F1F0E0EE0F5D
:10018000FF1FE458FF4FA591B4918FB7F894EC91FD
:10019000611126C030953E233C938FBF08952730D0
:1001A000A9F02830C9F0243049F7809180008F7D74
:1001B00003C0809180008F7780938000DFCF84B56B
:1001C0008F7784BDDBCF84B58F7DFBCF8091B0006E
:1001D0008F778093B000D2CF8091B0008F7DF9CF20
:1001E0003E2BDACFCF93DF93C82FD0E080917D01F3
:1001F000D81758F4ED2FF0E0EB59FE4F60916801ED
:1002000087850E94A600DF5FF1CFEC2FF0E0EB596D
:10021000FE4F609166018781DF91CF910C94A6001B
:10022000CF93DF93C82FD0E080917C01D81758F48A
:10023000ED2FF0E0EB59FE4F6091660187810E943F
:10024000A600DF5FF1CFEC2FF0E0EB59FE4F60919D
:1002500068018785DF91CF910C94A6001F93CF93FF
:10026000DF93C82FD0E0CB59DE4F609165018F81BD
:100270000E94A60010E06A9680917D011817A8F4EC
:10028000E12FF0E0888190E0012E02C095958795DE
:100290000A94E2F780FF07C0EB59FE4F60916701B7
:1002A00087850E94A6001F5FE7CFDF91CF911F9146
:1002B00008950F931F93CF93C82FE82FF0E0EB59C9
:1002C000FE4F6091670187850E94A60001E010E063
:1002D00002C0000F111FCA95E2F7C0E080917C01B7
:1002E000C81788F4EC2FF0E0EB59FE4F828D90E0B8
:1002F00080239123892B29F06091650187810E94D9
:10030000A600CF5FEBCFCF911F910F910895823060
:10031000910538F0880F991F880F991F059701974D
:10032000F1F708953FB7F89480915D0190915E01D7
:10033000A0915F01B091600126B5A89B05C02F3F39
:1003400019F00196A11DB11D3FBFBA2FA92F982FFB
:100350008827BC01CD01620F711D811D911D42E0F6
:10036000660F771F881F991F4A95D1F708951F922E
:100370000F920FB60F9211242F933F938F939F9359
:10038000AF93BF938091590190915A01A0915B0165
:10039000B0915C013091580123E0230F2D3758F5BF
:1003A0000196A11DB11D209358018093590190938E
:1003B0005A01A0935B01B0935C0180915D01909123
:1003C0005E01A0915F01B09160010196A11DB11D78
:1003D00080935D0190935E01A0935F01B0936001F3
:1003E000BF91AF919F918F913F912F910F900FBE31
:1003F0000F901F90189526E8230F0296A11DB11D9E
:10040000D2CFCF93DF93CDB7DEB765970FB6F89411
:10041000DEBF0FBECDBF789484B5826084BD84B545
:10042000816084BD85B5826085BD85B5816085BDEF
:1004300080916E00816080936E00109281008091A7
:10044000810082608093810080918100816080932F
:100450008100809180008160809380008091B10054
:1004600084608093B1008091B00081608093B0007F
:1004700080917A00846080937A0080917A00826013
:1004800080937A0080917A00816080937A008091D5
:100490007A00806880937A001092C1008AE0898790
:1004A0008BE08A8788E0E0E0F1E0DE0111960190C0
:1004B0000D928A95E1F71092690110926A011092EB
:1004C0006B0182E080937C0188E080937D01109233
:1004D000650181E080936701809366011092680155
:1004E000FE013196A4E7B1E0CE01099621912D934A
:1004F0008E179F07D9F78AE080936C018BE0809379
:100500006D0110E080917C01181798F4812F90E024
:100510009C012B593E4F7901D90117968C910E946D
:10052000870060916601F70187810E94A6001F5F26
:10053000E9CF10E080917D01181750F090917C0177
:10054000EFE7F1E080E09817B1F011928F5FFBCFF9
:10055000812F90E09C012B593E4F7901D9011F96C4
:100560008C910E94870060916801F70187850E9445
:10057000A6001F5FDFCF80E00E94100180E00E9494
:10058000F200C0906101D0906201E0906301F090B0
:100590006401FFEFCF1ADF0AEF0AFF0AC092610180
:1005A000D0926201E0926301F0926401C701B6014A
:1005B00028EE33E040E050E00E94B60449015A01C1
:1005C0002DB73EB73B8B2A8B30917C013D87632E44
:1005D000712C4DB75EB7461957090FB6F8945EBF38
:1005E0000FBE4DBF8DB79EB701969C878B87D301F9
:1005F000AA0FBB1FAA0FBB1FBF87AE87FD01E05D1F
:10060000FE4F80819181A281B38188169906AA0646
:10061000BB0634F18B85E82FFC859E2F981BAD859A
:100620009A1708F46CC093012250310985E691E0D5
:10063000EB85FC8550E040E06D85461708F07FC0F3
:10064000A191B0E0A85FBE4F6C912417350709F463
:1006500074C0DC015A966C934F5F5F4F0196ECCFEC
:10066000AE85BF85A45DBE4F8D919D910D90BC91CF
:10067000A02D21E030E040E050E0281B390B4A0B70
:100680005B0BDA01C90188169906AA06BB0614F2AB
:100690008F014B855C85598B488B6CEF930162030E
:1006A000A001639F500D11245D8B4C8BE0E3F1E0C2
:1006B000E017F10739F104501109EC89FD89E00FC9
:1006C000F11F2E853F85E20FF31F2080318042808D
:1006D0005380C501B401A20191010E948C04A88934
:1006E000B9892D93B98BA88BA22FB0E0A2019101FB
:1006F0000E94AB04861A970AA80AB90AD7CFB5E2B6
:10070000B1938BCF80916B0181118DCF93012250DA
:100710003109E82FF0E0E217F3070CF084CF4B85A6
:100720005C85E40FF51F9081911104C054E2508361
:100730008F5FEFCF9A30E0F776CF60688ACFEA8993
:10074000FB890FB6F894FEBF0FBEEDBFF0EACF16DF
:10075000F6E8DF06F1E0EF06F10441F410926101E2
:100760001092620110926301109264010E94920142
:100770006B017C010E9492016C197D098E099F0911
:10078000683E734081059105A8F380916A0181114B
:1007900077C00E94920140918F01009187011091D2
:1007A00088012091890130918A016B017C01C01A76
:1007B000D10AE20AF30A00918D0110918E014111D4
:1007C00004C000918B0110918C01012E000C220BB2
:1007D000330BC016D106E206F30668F16093870179
:1007E000709388018093890190938A0180917E01A2
:1007F00020916901211127C0442391F010928F01AB
:1008000080917E018F5F80937E0190917D01891799
:1008100010F010927E0180917E010E9459010BC060
:100820000E94100180918D0190918E01892B41F3DE
:1008300031E030938F0140E050E0452B09F4A1CE28
:100840000E9400009ECE442391F010928F0180916F
:100850007E018F5F80937E0190917C01891710F05B
:1008600010927E0180917E010E942E01E4CF0E94B1
:10087000F20080918D0190918E01892B41F3D8CFA8
:100880008091690110E081111AC080917D011817D3
:1008900090F6812F0E94590180918B0190918C01DB
:1008A0000E948701812F0E94100180918D019091FB
:1008B0008E01009711F00E9487011F5FE6CF8091A3
:1008C0007C01181708F0B7CF812F0E942E0180916C
:1008D0008B0190918C010E948701812F0E94F20070
:1008E00080918D0190918E01009711F00E948701F7
:1008F0001F5FE5CFE5E6F1E080ED97E097A386A3E3
:1009000011A610A612A6178A118E12A213A214A263
:1009100015A2148215820895052E97FB1EF40094EB
:100920000E94A30457FD07D00E94B60407FC03D021
:100930004EF40C94A30450954095309521953F4F6B
:100940004F4F5F4F089590958095709561957F4FBB
:100950008F4F9F4F08950E94D804A59F900DB49F7C
:10096000900DA49F800D911D11240895A1E21A2ECF
:10097000AA1BBB1BFD010DC0AA1FBB1FEE1FFF1F43
:10098000A217B307E407F50720F0A21BB30BE40B93
:10099000F50B661F771F881F991F1A9469F76095DA
:1009A0007095809590959B01AC01BD01CF01089594
:1009B000A29FB001B39FC001A39F700D811D1124A0
:1009C000911DB29F700D811D1124911D0895EE0F90
:0E09D000FF1F0590F491E02D0994F894FFCFDD
:1009DE0002030405060708093F065B4F666D7D0797
:1009EE007F6F777C395E79713D76060E76380054CE
:1009FE003F7367506D783E3E00766E5B00408063BD
:100A0E00010000000A00000064000000E80300007E
:100A1E0010270000A086010040420F00809698002B
:080A2E0000E1F50500CA9A3B46
:00000001FF
